:10029B0048656C6C6F204361722100537065656417
:0702AB00202D203130250059
:09030B0001220001240A0123640F
:1002D9007580FFC2C4D2C5D2C6AF80C2C6EF20E7BF
:0102E900F61E
:0102EA0022F1
:1002EB00AE071202D9C2C4C2C58E80D2C6C2C62204
:1002FB00AE071202D9D2C4C2C58E80D2C6C2C622E4
:10028400AE07AC03ED6003430640430680AF06129D
:0702940002EBAF040202FBC4
:100253008B1F8A208921ED600343074043078012E7
:1002630002EBAB1FAA20A92112010460130521E5AB
:10027300217002052014F9120104FF1202FB80E22F
:010283002258
:1002B2007F381202EB7F0C1202EB7F061202EB7FF9
:0402C200010202EB48
:09031500C290D291C295D2962249
:09031E00C290C291C295C2962260
:09032700C290D291C295C2962247
:09033000C290C291C295D296223E
:1002C600438E805389F0758A20758CD1C28DD28C6D
:0302D600D2A92288
:1001A90078087C007D007BFF7A02799B7E007F0BBB
:1001B9001200DE78137C007D007BFF7A0279A67E2F
:1001C900007F0C1200DE75BBFB759201E4F591F519
:1001D90094F5931202B27B007A007908E4FDFF12CC
:1001E90002537B007A0079130DE4FF1202531202C5
:1001F900C6D2AF30A60830A40512031580F520A693
:100209000630A40312033030A6E920A4E61203271E
:0202190080E182
:03000B0002021BD3
:10021B00C0E0C0D0E522D3952450080522D292D25B
:10022B0093D294E524C39522500FE522C395235016
:10023B00080522C292C293C294E522C395234003C0
:08024B00752200D0D0D0E03292
:0300000002011DDD
:0C011D00787FE4F6D8FD758124020164AF
:10000E00E709F608DFFA8046E709F208DFFA803ED4
:10001E0088828C83E709F0A3DFFA8032E309F608C1
:10002E00DFFA8078E309F208DFFA807088828C8329
:10003E00E309F0A3DFFA806489828A83E0A3F608DD
:10004E00DFFA805889828A83E0A3F208DFFA804CB7
:10005E0080D280FA80C680D4806980F2803380108E
:10006E0080A680EA809A80A880DA80E280CA8033F7
:10007E0089828A83ECFAE493A3C8C582C8CCC5836F
:10008E00CCF0A3C8C582C8CCC583CCDFE9DEE7803F
:10009E000D89828A83E493A3F608DFF9ECFAA9F0BE
:1000AE00EDFB2289828A83ECFAE0A3C8C582C8CC14
:1000BE00C583CCF0A3C8C582C8CCC583CCDFEADE2D
:1000CE00E880DB89828A83E493A3F208DFF980CC8F
:1000DE0088F0EF60010E4E60C388F0ED2402B40488
:1000EE000050B9F582EB2402B4040050AF2323452F
:0600FE00822390005E73F6
:10010400BB010689828A83E0225002E722BBFE02F9
:09011400E32289828A83E493222C
:100129000201A9E493A3F8E493A34003F68001F242
:1001390008DFF48029E493A3F85407240CC8C333D7
:10014900C4540F4420C8834004F456800146F6DFA6
:10015900E4800B010204081020408090030BE47E28
:10016900019360BCA3FF543F30E509541FFEE4939B
:10017900A360010ECF54C025E060A840B8E493A362
:10018900FAE493A3F8E493A3C8C582C8CAC583CA8D
:10019900F0A3C8C582C8CAC583CADFE9DEE780BE45
:0103140000E8
:00000001FF
